:020000040000FA
:100000008806002061010000990600009F0300009F
:1000100000000000000000000000000000000000E0
:10002000000000000000000000000000C706000003
:100030000000000000000000C5060000C906000026
:100040000000000079010000790100007901000042
:100050007901000079010000790100000000000032
:10006000000000000000000079010000790100009C
:100070007901000079010000790100000000000012
:100080000000000079010000790100004506000031
:10009000000000000000000079010000790100006C
:1000A0007901000079010000790100007901000068
:1000B00079010000790100007901000000F002F8E8
:1000C00000F03EF80CA030C8083824182D18A246BD
:1000D000671EAB4654465D46AC4201D100F030F895
:1000E0007E460F3E0FCCB6460126334200D0FB1AA7
:1000F000A246AB4633431847D0060000F006000086
:10010000103A02D378C878C1FAD8520701D330C860
:1001100030C101D504680C60704700000023002442
:1001200000250026103A01D378C1FBD8520700D32E
:1001300030C100D50B6070471FB51FBD10B510BD95
:1001400000F0E0F81146FFF7F7FF00F01DFB00F0AC
:10015000F8F803B4FFF7F2FF03BC00F0FFF800006B
:10016000094880F308880948804709480047FEE7A6
:10017000FEE7FEE7FEE7FEE7FEE70000054806496A
:10018000064A074B7047000088060020CD06000095
:10019000BD000000880000208806002088020020A2
:1001A00088020020002203098B422CD3030A8B42D1
:1001B00011D300239C464EE003460B433CD400225F
:1001C00043088B4231D303098B421CD3030A8B4271
:1001D00001D394463FE0C3098B4201D3CB01C01A3F
:1001E000524183098B4201D38B01C01A524143090A
:1001F0008B4201D34B01C01A524103098B4201D3F8
:100200000B01C01A5241C3088B4201D3CB00C01A64
:10021000524183088B4201D38B00C01A52414308DC
:100220008B4201D34B00C01A5241411A00D2014601
:100230005241104670475DE0CA0F00D0494203109A
:1002400000D34042534000229C4603098B422DD3E9
:10025000030A8B4212D3FC22890112BA030A8B4291
:100260000CD3890192118B4208D3890192118B42E0
:1002700004D389013AD0921100E08909C3098B4265
:1002800001D3CB01C01A524183098B4201D38B01A8
:10029000C01A524143098B4201D34B01C01A52414B
:1002A00003098B4201D30B01C01A5241C3088B4290
:1002B00001D3CB00C01A524183088B4201D38B007B
:1002C000C01A5241D9D243088B4201D34B00C01A05
:1002D0005241411A00D20146634652415B1010461A
:1002E00001D34042002B00D54942704763465B1062
:1002F00000D3404201B50020C046C04602BD704751
:1003000070477047754600F025F8AE46050069460F
:100310005346C008C000854618B020B5FFF72EFF31
:1003200060BC00274908B6460026C0C5C0C5C0C588
:10033000C0C5C0C5C0C5C0C5C0C5403D49008D468B
:10034000704710B50446C046C0462046FFF701FF7F
:1003500010BD00000048704724000020014918200B
:10036000ABBEFEE726000200704710B500F06EF944
:1003700010BD0000002004E00021034A1154411C7C
:10038000C8B22028F8DB70470400002008B50090B0
:1003900000BF00994A1E00920029FAD108BD70479B
:1003A0001FB5102168460170B021418000214171C4
:1003B000017330218171062101710648029068465F
:1003C00000F050F80121132000F068F900F0FCF86B
:1003D0001FBD0000801A060010B5022000F0FEF8D4
:1003E000012801D11B48406A402000F0F7F801289D
:1003F00012D1800400F0F2F800280DD116480078E0
:10040000202809DA00F012F913490A780978491C02
:10041000114B197011498854114800F0DFF8012878
:100420000DD10D480078202809DA0B490A7809789F
:10043000491C094B19700949885C00F0FDF810202F
:1004400000F0CCF8012803D1024840680149486017
:1004500010BD00000030004000000020040000201B
:100460008000040070B5044600BF5448006840088E
:100470004000524908600846806880098001A179DF
:100480008906890E08434D4988604D49A068884215
:100490002DD94A48006B8021884380304749086342
:1004A000207B01280BD11923A2685A431146A27957
:1004B000444B5A431046FFF775FE054609E0A26813
:1004C0005300D118A2793F4B5A431046FFF76AFEFA
:1004D0000546002D00D10125A1794A0088180A217E
:1004E000FFF76AFE401CC0B2344948630FE0A268BF
:1004F0005100A279334B5A431046FFF753FE05468D
:10050000042D00D20425A079401C2C494863E8B290
:100510002A49C8620846006B000900012905090F35
:100520000843264908630846006B40218843217B25
:1005300089014022114008432049086308460068A9
:1005400040084000401C0860A078C8600846006968
:100550000621884361880912490006221140084398
:100560001649086108460069802188436179C901FC
:100570008022114008431149086108460069402162
:10058000884340300D49086108464068042188438B
:100590002178091189000422114008430749486065
:1005A00008464068082188432178C9000822114084
:1005B0000843024948602079886270BD00300040DD
:1005C000A086010040420F00034800684008400038
:1005D000401C01490860704700300040F0B50146FA
:1005E000002500260027CAB20804030E0802040EE4
:1005F000002A03D00C48C06910400546002B03D0E8
:100600000948006A18400646002C03D00648406A94
:1006100020400746954205D19E4203D1A74201D111
:100620000120F0BD0020FCE7003000400148806957
:10063000C0B2704700300040014988617047000037
:100640000030004010B5FFF7C7FE10BD104800682D
:100650001021884310300E49086008460068C00821
:10066000C000401C08600B488069C008C0000949F0
:1006700088610846806920218843203005498861C7
:100680000846806918218843024988617047000044
:1006900000100140000001407047000070B50446A2
:1006A0000D462946204600F033F82046002805DB99
:1006B000C206D20E01219140014A116000BF70BDF7
:1006C00000E100E0704770477047000010B501205E
:1006D0000E49086000204860E12008610020486160
:1006E00018208861FF20C8618862C8630020086202
:1006F000486200BF0548406AC007C00F0028F9D112
:10070000024948620863FFF730FE10BD0000014057
:1007100010B5002819DB1A4A03231B02D2188308DC
:100720009B00D2588307DC0EFF23A3409A438B071C
:100730001B0E8407E40EA3401A43114B032424022A
:100740001B198408A4001A5118E00E4A03071B0F56
:10075000083B9B089B00D2588307DC0EFF23A34075
:100760009A438B071B0E8407E40EA3401A43054BE4
:100770000407240F083CA408A4001A5110BD00006F
:1007800000E100E01CED00E0FFF70AFE19E0FFF7D2
:10079000F1FD00200B49087000BF0A4800782028AE
:1007A000FBDB03200002FFF7F1FD00200549087084
:1007B00000BF044800782028FBDB03200002FFF77D
:1007C000E5FDE4E700000020E8070000000000204D
:1007D0000400000000010000EC07000004000020FD
:0C07E000840600001C0100000000000066
:04000005000000BD3A
:00000001FF
