:020000040000FA
:10000000A80600206101000015090000530500004A
:1000100000000000000000000000000000000000E0
:100020000000000000000000000000004309000084
:100030000000000000000000410900004509000028
:100040000000000079010000790100007901000042
:100050007901000079010000790100000000000032
:10006000000000000000000079010000790100009C
:100070007901000079010000790100000000000012
:1000800000000000790100007901000081080000F3
:10009000000000000000000079010000790100006C
:1000A0007901000079010000790100007901000068
:1000B00079010000790100007901000000F002F8E8
:1000C00000F03EF80CA030C8083824182D18A246BD
:1000D000671EAB4654465D46AC4201D100F030F895
:1000E0007E460F3E0FCCB6460126334200D0FB1AA7
:1000F000A246AB4633431847BC090000DC090000A8
:10010000103A02D378C878C1FAD8520701D330C860
:1001100030C101D504680C60704700000023002442
:1001200000250026103A01D378C1FBD8520700D32E
:1001300030C100D50B6070471FB51FBD10B510BD95
:1001400000F0E0F81146FFF7F7FF00F05BFC00F06D
:10015000F8F803B4FFF7F2FF03BC00F0FFF800006B
:10016000094880F308880948804709480047FEE7A6
:10017000FEE7FEE7FEE7FEE7FEE70000054806496A
:10018000064A074B70470000A806002049090000F6
:10019000BD000000A8000020A8060020A802002042
:1001A000A8020020002203098B422CD3030A8B42B1
:1001B00011D300239C464EE003460B433CD400225F
:1001C00043088B4231D303098B421CD3030A8B4271
:1001D00001D394463FE0C3098B4201D3CB01C01A3F
:1001E000524183098B4201D38B01C01A524143090A
:1001F0008B4201D34B01C01A524103098B4201D3F8
:100200000B01C01A5241C3088B4201D3CB00C01A64
:10021000524183088B4201D38B00C01A52414308DC
:100220008B4201D34B00C01A5241411A00D2014601
:100230005241104670475DE0CA0F00D0494203109A
:1002400000D34042534000229C4603098B422DD3E9
:10025000030A8B4212D3FC22890112BA030A8B4291
:100260000CD3890192118B4208D3890192118B42E0
:1002700004D389013AD0921100E08909C3098B4265
:1002800001D3CB01C01A524183098B4201D38B01A8
:10029000C01A524143098B4201D34B01C01A52414B
:1002A00003098B4201D30B01C01A5241C3088B4290
:1002B00001D3CB00C01A524183088B4201D38B007B
:1002C000C01A5241D9D243088B4201D34B00C01A05
:1002D0005241411A00D20146634652415B1010461A
:1002E00001D34042002B00D54942704763465B1062
:1002F00000D3404201B50020C046C04602BD704751
:1003000070477047754600F025F8AE46050069460F
:100310005346C008C000854618B020B5FFF72EFF31
:1003200060BC00274908B6460026C0C5C0C5C0C588
:10033000C0C5C0C5C0C5C0C5C0C5403D49008D468B
:10034000704710B50446C046C0462046FFF701FF7F
:1003500010BD0000004870474400002001491820EB
:10036000ABBEFEE726000200704700007CB50446E5
:100370000D460FA000680090012168460171E00061
:100380000C49401801796846C17100218171002D26
:1003900006D0012069468871085D022100F04CF802
:1003A000E100044A505801A900F08AF87CBD000021
:1003B00003000000AC0A000010B50446E200044B44
:1003C000D2181179E200985800F0B9F810BD000079
:1003D000AC0A000030B503460C46002107E0585C2B
:1003E000655CA84201D0002030BD481CC1B29142DA
:1003F000F5DB0120F8E710B500F066FA10BD00004B
:10040000002008E00146A031044A11540021044AAA
:100410001154411CC8B22028F4DB704704000020AE
:100420002400002008B5009000BF00994A1E0092E9
:100430000029FAD108BD000010B5002809D11F4AD3
:100440001268920892008B079B0F1A431B4B1A608D
:1004500032E001280AD1194A12680C239A438B0012
:100460000C2423401A43154B1A6025E002280AD1B8
:10047000124A126830239A430B01302423401A4356
:100480000E4B1A6018E003280AD10C4A1268C023E8
:100490009A438B01C02423401A43084B1A600BE097
:1004A000062809D1054A526804239A438B00042484
:1004B00023401A43014B5A6010BD00000018004051
:1004C000F8B50246D56813699668009600242FE0B7
:1004D0000120A040CE780640002E00D126E02E4616
:1004E000864335461E4686433346009E8643009625
:1004F0000E78F607F60F002E02D02E46064335463C
:100500000E7810273E40002E09D0009E064300962C
:100510004E78002E09D01E460643334605E08E78FD
:10052000002E02D01E460643334600BF661CF4B2BE
:10053000082CCDDBD5601361009E9660F8BD0246A5
:1005400053680B40002B01D0012300E00023184624
:10055000704770471FB5102168460170B021418077
:10056000002141710173302181710621017106481A
:100570000290684600F060F80121132000F0CCF9E9
:1005800000F024F91FBD0000A086010010B5012075
:1005900000F03AF9012804D121480178B02000F098
:1005A00061F9022000F030F9012801D11D48406AAC
:1005B0001D4800F029F9012810D11C480078202896
:1005C0000ADA1A490A780978491C184B197018492F
:1005D000885C00F04FF901E000F00CF9402000F0D9
:1005E00013F901281BD1800400F00EF9002816D160
:1005F0000E480078202812DA0C4800781E2804D112
:10060000002000F0CBF800F0F5F800F025F90749DC
:100610000A780978491C054B19700649885410BDA1
:100620000100002000300040800004000000002095
:10063000040000202400002070B5044600BF544888
:1006400000684008400052490860084680688009F8
:100650008001A1798906890E08434D4988604D497A
:10066000A06888422DD94A48006B80218843803099
:1006700047490863207B01280BD11923A2685A43FC
:100680001146A279444B5A431046FFF78BFD0546AD
:1006900009E0A2685300D118A2793F4B5A43104693
:1006A000FFF780FD0546002D00D10125A1794A0004
:1006B00088180A21FFF780FD401CC0B23449486306
:1006C0000FE0A2685100A279334B5A431046FFF75E
:1006D00069FD0546042D00D20425A079401C2C4953
:1006E0004863E8B22A49C8620846006B0009000165
:1006F0002905090F0843264908630846006B402175
:100700008843217B89014022114008432049086326
:100710000846006840084000401C0860A078C86097
:1007200008460069062188436188091249000622AB
:100730001140084316490861084600698021884332
:100740006179C901802211400843114908610846B6
:1007500000694021884340300D49086108464068DF
:10076000042188432178091189000422114008439B
:100770000749486008464068082188432178C90035
:10078000082211400843024948602079886270BD00
:1007900000300040A086010040420F000A4949682D
:1007A000042291430211920004231A401143064A85
:1007B00051601146496808229143C20008231A403B
:1007C0001143014A516070470030004003480068FF
:1007D00040084000401C014908607047003000405C
:1007E0000348406840084000401C01494860704789
:1007F000003000400348406802218843801C0149C2
:100800004860704700300040F0B5014600250026E2
:100810000027CAB20804030E0802040E002A03D0FF
:100820000C48C06910400546002B03D00948006AF7
:1008300018400646002C03D00648406A2040074670
:10084000954205D19E4203D1A74201D10120F0BDBE
:100850000020FCE70030004001488069C0B27047CA
:1008600000300040FE2202400A43014B9A6170476B
:1008700000300040014988617047000000300040AE
:1008800010B5FFF783FE10BD10B500210846FFF735
:100890006DFD10BD10B500240020FFF78DFD002870
:1008A0000ED10848FFF7BEFD0020FFF785FD0028A8
:1008B00006D100BF0020FFF77FFD0028FAD00124F9
:1008C000204610BDFF7F00001048006810218843BB
:1008D00010300E49086008460068C008C000401C7F
:1008E00008600B488069C008C00009498861084653
:1008F0008069202188432030054988610846806945
:1009000018218843024988617047000000100140A7
:10091000000001407047000070B504460D462946AE
:10092000204600F033F82046002805DBC206D20E30
:1009300001219140014A116000BF70BD00E100E05B
:10094000704770477047000010B501200E490860DD
:1009500000204860E120086100204861182088617B
:10096000FF20C8618862C86300200862486200BF37
:100970000548406AC007C00F0028F9D10249486203
:100980000863FFF738FD10BD0000014010B50028D6
:1009900019DB1A4A03231B02D21883089B00D25882
:1009A0008307DC0EFF23A3409A438B071B0E8407AB
:1009B000E40EA3401A43114B032424021B1984089C
:1009C000A4001A5118E00E4A03071B0F083B9B08AE
:1009D0009B00D2588307DC0EFF23A3409A438B076A
:1009E0001B0E8407E40EA3401A43054B0407240F93
:1009F000083CA408A4001A5110BD000000E100E06A
:100A00001CED00E0FFF740FFFFF7A4FD3CE0FFF71F
:100A100041FF002838D0FFF7F3FC00201B49087085
:100A20001B49087000BF01204004FFF7EDFE0128BC
:100A3000F9D0FFF7D5FE00BF144800782028FBDB73
:100A400001200003FFF7EEFC002010490870102081
:100A5000FFF7A4FE01200E49087000BF01204004EA
:100A6000FFF7D2FE0128F9D0FFF7BAFE00BF074812
:100A700000782028FBDB202206490748FFF7AAFC64
:100A8000002801D100BFFEE7C1E700000000002000
:100A90000100002024000020040000200004004089
:100AA000200000000004004010000000000C004086
:100AB00040000000D40A00000000002004000000F4
:100AC00000010000D80A000004000020A406000075
:080AD0001C0100000000000001
:04000005000000BD3A
:00000001FF
